:020000040000fa
:080000000001040000000000f3
:020000040000fa
:04000800c80100002b
:020000040000fa
:04000c00c801000027
:020000040000fa
:04001000c801000023
:020000040000fa
:04001400c80100001f
:020000040000fa
:04001800c80100001b
:020000040000fa
:04001c00c801000017
:020000040000fa
:04002000c801000013
:020000040000fa
:04002400c80100000f
:020000040000fa
:04002800c80100000b
:020000040000fa
:04002c00c801000007
:020000040000fa
:04003000c801000003
:020000040000fa
:04003400c8010000ff
:020000040000fa
:04003800c8010000fb
:020000040000fa
:04003c00c8010000f7
:020000040000fa
:04004000c8010000f3
:020000040000fa
:04004400c8010000ef
:020000040000fa
:04004800c8010000eb
:020000040000fa
:04004c00c8010000e7
:020000040000fa
:04005000c8010000e3
:020000040000fa
:04005400c8010000df
:020000040000fa
:04005800c8010000db
:020000040000fa
:04005c00c8010000d7
:020000040000fa
:04006000c8010000d3
:020000040000fa
:04006400c8010000cf
:020000040000fa
:04006800c8010000cb
:020000040000fa
:04006c00c8010000c7
:020000040000fa
:04007000c8010000c3
:020000040000fa
:04007400c8010000bf
:020000040000fa
:04007800c8010000bb
:020000040000fa
:04007c00c8010000b7
:020000040000fa
:04008000c8010000b3
:020000040000fa
:04008400c8010000af
:020000040000fa
:04008800c8010000ab
:020000040000fa
:04008c00c8010000a7
:020000040000fa
:04009000c8010000a3
:020000040000fa
:04009400c80100009f
:020000040000fa
:04009800c80100009b
:020000040000fa
:04009c00c801000097
:020000040000fa
:0400a000c801000093
:020000040000fa
:0400a400c80100008f
:020000040000fa
:0400a800c80100008b
:020000040000fa
:0400ac00c801000087
:020000040000fa
:0400b000c801000083
:020000040000fa
:0400b400c80100007f
:020000040000fa
:0400b800c80100007b
:020000040000fa
:0400bc00c801000077
:020000040000fa
:0400c000c801000073
:020000040000fa
:0400c400c80100006f
:020000040000fa
:0400c800c80100006b
:020000040000fa
:0400cc00c801000067
:020000040000fa
:0400d000c801000063
:020000040000fa
:0400d400c80100005f
:020000040000fa
:0400d800c80100005b
:020000040000fa
:04010800c80100002a
:020000040000fa
:04010c00c801000026
:020000040000fa
:04011000c801000022
:020000040000fa
:04011400c80100001e
:020000040000fa
:04011800c80100001a
:020000040000fa
:04011c00c801000016
:020000040000fa
:04012000c801000012
:020000040000fa
:04012400c80100000e
:020000040000fa
:04012800c80100000a
:020000040000fa
:04012c00c801000006
:020000040000fa
:04013000c801000002
:020000040000fa
:04013400c8010000fe
:020000040000fa
:04013800c8010000fa
:020000040000fa
:04013c00c8010000f6
:020000040000fa
:04014000c8010000f2
:020000040000fa
:04014400c8010000ee
:020000040000fa
:04014800c8010000ea
:020000040000fa
:04014c00c8010000e6
:020000040000fa
:04015000c8010000e2
:020000040000fa
:04015400c8010000de
:020000040000fa
:04015800c8010000da
:020000040000fa
:04015c00c8010000d6
:020000040000fa
:04016000c8010000d2
:020000040000fa
:04016400c8010000ce
:020000040000fa
:04016800c8010000ca
:020000040000fa
:04016c00c8010000c6
:020000040000fa
:04017000c8010000c2
:020000040000fa
:04017400c8010000be
:020000040000fa
:04017800c8010000ba
:020000040000fa
:04017c00c8010000b6
:020000040000fa
:04018000c8010000b2
:020000040000fa
:04018400c8010000ae
:020000040000fa
:04018800c8010000aa
:020000040000fa
:04018c00c8010000a6
:020000040000fa
:04019000c8010000a2
:020000040000fa
:04019400c80100009e
:020000040000fa
:04019800c80100009a
:020000040000fa
:04019c00c801000096
:020000040000fa
:0401a000c801000092
:020000040000fa
:0401a400c80100008e
:020000040000fa
:0401a800c80100008a
:020000040000fa
:0401ac00c801000086
:020000040000fa
:0401b000c801000082
:020000040000fa
:0401b400c80100007e
:020000040000fa
:0401b800c80100007a
:020000040000fa
:0401bc00c801000076
:020000040000fa
:0401c000c801000072
:020000040000fa
:0401c400c80100006e
:020000040000fa
:0401c800c80100006a
:020000040000fa
:0401cc00c801000066
:020000040000fa
:0401d000c801000062
:020000040000fa
:0401d400c80100005e
:020000040000fa
:0401d800c80100005a
:020000040000fa
:100200006f8820000ef720000e018800000000001b
:10021000000020000000e000020032000001200089
:1002200020028800140007005b0007000000e000c7
:1002300003003a0040372000010020000200370090
:100240000000200001002000810f7000010032003a
:1002500014000700000020000000e000020032004f
:100260000000020000000000aa02020000000000de
:100270000040da000000fe004440a9000000200019
:100280000000e0000300320000002000a001880010
:100290004440a800000006008a1f78008b1f7800e9
:1002a0000000060091018800800478000000eb0047
:1002b0001a003700e284440032a0b4009905ba0065
:1002c000e284440032a0b4009906ba00e2844400fb
:1002d00032a0b4000006eb00476fde00fd07b2005d
:1002e000636ce10003003a00ebff07000000eb0045
:1002f0000a003700606ce10004003a00005deb008a
:100300008b05e900fdff3e00040037006168e10055
:10031000010032000086eb000b00070019c7ba008d
:100320001905ba000e04e00003003a000a00e000dc
:10033000e0ff3a0000000600fe07b2009e018800c0
:100340008a047800f5ff3700395dba008b05e900b3
:100350000c003200295dba008b05e900080032006c
:100360000c00e00003003a00e284440032a0b40034
:10037000f5ff370019ddba008b05e900faff3a00f6
:100380008904e800e184440032a0b40000000600c3
:0c0390000040da000000fe000000050044
:020000040000fa
:10039c00801f7800811f7800800078000000eb003f
:1003ac00314078000004e000060032001a0202001e
:1003bc0000000000ee01020000000000d601040065
:1003cc0000000000cf0078004f007800000006000d
:1003dc00d402a80000000000d422a90000000000f4
:1003ec00d442a80000000000c8e2b70000000000e2
:1003fc00d442a9000000000000000600d402a900ad
:10040c0000000000d422a90000000000d442a80083
:10041c0000000000c8e2b70000000000d442a900b0
:10042c000000000000000600811f7800821f780089
:10043c000001eb00f10f20000000000032168000dc
:10044c0000000000028170003216880000000000dd
:10045c00d402a90000000000d422a8000000000073
:10046c00d442a800c8e2af0038020400000000002b
:10047c00d442a900d422a90001f02f0000000000f2
:10048c000101610032168800000000004f01780065
:10049c00cf00780000000600801f78000000eb0001
:1004ac0032030200000000000003200004020200de
:1004bc0000000000320302000000000000032000d6
:1004cc0004020200000000003203020000000000e1
:1004dc000003200004020200000000001a020200c7
:1004ec000000000080032000040202000000000055
:1004fc001a0202000000000080002000040202002a
:10050c00000000001a020200000000001000200091
:10051c0004020200000000001a02020000000000a9
:10052c006000200004020200000000001a02020019
:10053c0000000000f0002000040202000000000097
:10054c004f007800000006000000fa0015000700bc
:10055c002d000700d0ff07008268ef008428ef0011
:10056c000b0007000de2a800204480000000e00012
:10057c0004003200acff070082c8bf0094ff0700e4
:10058c008428ef000000000000000000f6ff370098
:10059c000000fa008520a9008d20a8000080fa0038
:1005ac00000006000000fa00c822ef000000000066
:1005bc00ca22ef0000000000c622ef00000000007d
:1005cc000080eb0040158800ce22ef0000000000f8
:1005dc00d022ef0000000000cc22ef000000000051
:1005ec00d422ef0000000000d622ef000000000033
:1005fc00d222ef0000000000cdc2a80000000000d5
:10060c000080fa00000006000000fa000042200002
:10061c00601088000000280070108800b0002000d6
:10062c00a01088000080fa0000000600801f7800ef
:10063c00811f7800910020000000eb000000e90011
:10064c00feff3a008100e900fbff3a00cf00780082
:10065c004f0078000000060052030200000000006a
:10066c0052030200000000005203020000000000d0
:10067c0000000600520302000000000052030200ba
:10068c0000000000520302000000000052030200b0
:10069c000000000000000600801f780010c0200041
:1006ac000000e900feff3a004f0078000000060051
:1006bc00801f7800811f7800901080001044880003
:1006cc002144800011002000214488008520a900cd
:0c06dc00cf0078004f00780000400600be
:020000040000fa
:1006e800000800008000000000000000800f0000eb
:1006f80080000000000000008008000006000000e4
:080708000000000000000000e9
:020000040000fa
:0407100000000000e5
:020000040000fa
:0200000401f009
:04000000e0b9000063
:020000040000fa
:0200000401f009
:04000400ff7f00007a
:020000040000fa
:0200000401f009
:04000800feff0000f7
:020000040000fa
:0200000401f009
:04001400ffff0000ea
:00000001FF
