:020000040000fa
:080000000001040000000000f3
:020000040000fa
:04000800d001000023
:020000040000fa
:04000c00d00100001f
:020000040000fa
:04001000d00100001b
:020000040000fa
:04001400d001000017
:020000040000fa
:04001800d001000013
:020000040000fa
:04001c00d00100000f
:020000040000fa
:04002000d00100000b
:020000040000fa
:04002400d001000007
:020000040000fa
:04002800d001000003
:020000040000fa
:04002c00d0010000ff
:020000040000fa
:04003000d0010000fb
:020000040000fa
:04003400c8010000ff
:020000040000fa
:04003800d0010000f3
:020000040000fa
:04003c00d0010000ef
:020000040000fa
:04004000d0010000eb
:020000040000fa
:04004400d0010000e7
:020000040000fa
:04004800d0010000e3
:020000040000fa
:04004c00d0010000df
:020000040000fa
:04005000d0010000db
:020000040000fa
:04005400d0010000d7
:020000040000fa
:04005800d0010000d3
:020000040000fa
:04005c00d0010000cf
:020000040000fa
:04006000d0010000cb
:020000040000fa
:04006400d0010000c7
:020000040000fa
:04006800d0010000c3
:020000040000fa
:04006c00d0010000bf
:020000040000fa
:04007000d0010000bb
:020000040000fa
:04007400d0010000b7
:020000040000fa
:04007800d0010000b3
:020000040000fa
:04007c00d0010000af
:020000040000fa
:04008000d0010000ab
:020000040000fa
:04008400d0010000a7
:020000040000fa
:04008800d0010000a3
:020000040000fa
:04008c00d00100009f
:020000040000fa
:04009000d00100009b
:020000040000fa
:04009400d001000097
:020000040000fa
:04009800d001000093
:020000040000fa
:04009c00d00100008f
:020000040000fa
:0400a000d00100008b
:020000040000fa
:0400a400d001000087
:020000040000fa
:0400a800d001000083
:020000040000fa
:0400ac00d00100007f
:020000040000fa
:0400b000d00100007b
:020000040000fa
:0400b400d001000077
:020000040000fa
:0400b800d001000073
:020000040000fa
:0400bc00d00100006f
:020000040000fa
:0400c000d00100006b
:020000040000fa
:0400c400d001000067
:020000040000fa
:0400c800d001000063
:020000040000fa
:0400cc00d00100005f
:020000040000fa
:0400d000d00100005b
:020000040000fa
:0400d400d001000057
:020000040000fa
:0400d800d001000053
:020000040000fa
:04010800d001000022
:020000040000fa
:04010c00d00100001e
:020000040000fa
:04011000d00100001a
:020000040000fa
:04011400d001000016
:020000040000fa
:04011800d001000012
:020000040000fa
:04011c00d00100000e
:020000040000fa
:04012000d00100000a
:020000040000fa
:04012400d001000006
:020000040000fa
:04012800d001000002
:020000040000fa
:04012c00d0010000fe
:020000040000fa
:04013000d0010000fa
:020000040000fa
:04013400c8010000fe
:020000040000fa
:04013800d0010000f2
:020000040000fa
:04013c00d0010000ee
:020000040000fa
:04014000d0010000ea
:020000040000fa
:04014400d0010000e6
:020000040000fa
:04014800d0010000e2
:020000040000fa
:04014c00d0010000de
:020000040000fa
:04015000d0010000da
:020000040000fa
:04015400d0010000d6
:020000040000fa
:04015800d0010000d2
:020000040000fa
:04015c00d0010000ce
:020000040000fa
:04016000d0010000ca
:020000040000fa
:04016400d0010000c6
:020000040000fa
:04016800d0010000c2
:020000040000fa
:04016c00d0010000be
:020000040000fa
:04017000d0010000ba
:020000040000fa
:04017400d0010000b6
:020000040000fa
:04017800d0010000b2
:020000040000fa
:04017c00d0010000ae
:020000040000fa
:04018000d0010000aa
:020000040000fa
:04018400d0010000a6
:020000040000fa
:04018800d0010000a2
:020000040000fa
:04018c00d00100009e
:020000040000fa
:04019000d00100009a
:020000040000fa
:04019400d001000096
:020000040000fa
:04019800d001000092
:020000040000fa
:04019c00d00100008e
:020000040000fa
:0401a000d00100008a
:020000040000fa
:0401a400d001000086
:020000040000fa
:0401a800d001000082
:020000040000fa
:0401ac00d00100007e
:020000040000fa
:0401b000d00100007a
:020000040000fa
:0401b400d001000076
:020000040000fa
:0401b800d001000072
:020000040000fa
:0401bc00d00100006e
:020000040000fa
:0401c000d00100006a
:020000040000fa
:0401c400d001000066
:020000040000fa
:0401c800d001000062
:020000040000fa
:0401cc00d00100005e
:020000040000fa
:0401d000d00100005a
:020000040000fa
:0401d400d001000056
:020000040000fa
:0401d800d001000052
:020000040000fa
:100200002f8920000ef720000e018800000000005a
:10021000000020000000e000020032000001200089
:1002200020028800140007005f0007000000e000c3
:1002300003003a0080422000010020000200370045
:100240000000200001002000810f7000010032003a
:1002500014000700000020000000e000020032004f
:100260000000020000000000b802020000000000d0
:100270000040da000000fe004440a9008000200099
:100280000000e0000300320000002000a001880010
:100290004440a800000006008a1f78008b1f7800e9
:1002a0000000060091018800800478000000eb0047
:1002b0001a003700e284440032a0b4009905ba0065
:1002c000e284440032a0b4009906ba00e2844400fb
:1002d00032a0b4000006eb00476fde00fd07b2005d
:1002e000636ce10003003a00ebff07000000eb0045
:1002f0000a003700606ce10004003a00005deb008a
:100300008b05e900fdff3e00040037006168e10055
:10031000010032000086eb000b00070019c7ba008d
:100320001905ba000e04e00003003a000a00e000dc
:10033000e0ff3a0000000600fe07b2009e018800c0
:100340008a047800f5ff3700395dba008b05e900b3
:100350000c003200295dba008b05e900080032006c
:100360000c00e00003003a00e284440032a0b40034
:10037000f5ff370019ddba008b05e900faff3a00f6
:100380008904e800e184440032a0b40000000600c3
:100390000000fa008460a9000080fa000040060016
:0c03a0000040da000000fe000000050034
:020000040000fa
:1003ac00524500004c4f00004a3a0000000000008b
:020000040000fa
:1003bc00801f7800811f7800800078003140780021
:1003cc000004e000060032002802020000000000d9
:1003dc00fc01020000000000e40104000000000029
:1003ec00cf0078004f00780000000600d402a8006f
:1003fc0000000000d422a90000000000d442a80094
:10040c0000000000c8e2b70000000000d442a900c0
:10041c000000000000000600d402a900000000004b
:10042c00d422a90000000000d442a8000000000063
:10043c00c8e2b70000000000d442a9000000000090
:10044c0000000600811f7800821f78000001eb007d
:10045c00f10f2000000000003216800000000000a8
:10046c00028170003216880000000000d402a9003e
:10047c0000000000d422a80000000000d442a80014
:10048c00c8e2af004602040000000000d442a900fc
:10049c00d422a90001f02f0000000000010161002e
:1004ac0032168800000000004f017800cf00780061
:1004bc0000000600801f78000000eb00e203020041
:1004cc0000000000000320001202020000000000e7
:1004dc00e2030200000000000003200012020200f0
:1004ec0000000000e20302000000000000032000f6
:1004fc0012020200000000002802020000000000ae
:10050c0080032000120202000000000028020200fa
:10051c000000000080002000120202000000000019
:10052c00280202000000000010002000120202004d
:10053c000000000028020200000000006000200003
:10054c00120202000000000028020200000000005d
:10055c00f000200012020200000000004f007800a2
:10056c00000006000000fa004200070010c0b300b3
:10057c0082e8b70080c0b30083e8b70050c0b30076
:10058c0084e8b70090c0b30085e8b70050c0b30052
:10059c0086e8b7008768ef00280007009c0007007a
:1005ac00c4ff0700a7ff070050c8b3009aff07005d
:1005bc00601d28007eff07002800070005e1a80049
:1005cc00a0c3b3008de8b7008dc8bf008ae8b700a0
:1005dc009068ef009bff070040ccb3008eff070034
:1005ec0082c8bf000043b00088e8b70083c8bf00d2
:1005fc000043b00089e8b70084c8bf000043b000d6
:10060c008be8b70085c8bf000043b0008ce8b7008a
:10061c0086c8bf000043b0008ee8b70087c8bf0093
:10062c000043b0008fe8b7008088200060ff07000f
:10063c000000000000000000e6ff37000000fa0098
:10064c000021ef0000002800100888002000200086
:10065c00200888000080fa00000006000000fa0064
:10066c008600a9008220a9008e00a8000080fa0054
:10067c00000006000000fa00c822ef000000000095
:10068c00ca22ef0000000000c622ef0000000000ac
:10069c000080eb0040158800ce22ef000000000027
:1006ac00d022ef0000000000cc22ef000000000080
:1006bc00d422ef0000000000d622ef000000000062
:1006cc00d222ef0000000000cda2a8000000000024
:1006dc00cdc2a800000000000080fa000000060057
:1006ec00801f78008768ec00a00020008748e3009a
:1006fc001e003a008768ef008668ec00600020005e
:10070c008648e30019003a008668ef008568ec0023
:10071c00a00020008548e30014003a008568ef0033
:10072c008468ec00600020008448e3000f003a006d
:10073c008468ef008368ec00200020008248e3000e
:10074c000d003200a00020008348e30007003a00af
:10075c008368ef008268ec00300020008248e300e0
:10076c0002003a008268ef008768ec008460a90000
:10077c004f00780000400600400020008348e30052
:10078c00faff3a00ae03040000000000801f78005e
:10079c00811f7800910020000000eb000000e900b0
:1007ac00feff3a008100e900fbff3a00cf00780021
:1007bc004f00780000000600020402000000000058
:1007cc00020402000000000002040200000000000d
:1007dc0000000600020402000000000002040200f7
:1007ec0000000000020402000000000002040200ed
:1007fc000000000000000600801f780010c02000e0
:10080c000000e900feff3a004f00780000000600ef
:10081c00801f7800811f7800821f78006004200000
:10082c0071052000227420000049780001497800ed
:10083c004227a8004f017800cf0078004f007800c5
:04084c0000000600a2
:020000040000fa
:10085000000800008000000000000000800f000081
:10086000800000000000000080080000120000006e
:08087000000000000000000080
:020000040000fa
:04087800000000007c
:020000040000fa
:0200000401f009
:04000000e0b9000063
:020000040000fa
:0200000401f009
:04000400ff7f00007a
:020000040000fa
:0200000401f009
:04000800feff0000f7
:020000040000fa
:0200000401f009
:04001400ffff0000ea
:00000001FF
