:020000040000fa
:080000000001040000000000f3
:020000040000fa
:04000800d80100001b
:020000040000fa
:04000c00d801000017
:020000040000fa
:04001000d801000013
:020000040000fa
:04001400d80100000f
:020000040000fa
:04001800d80100000b
:020000040000fa
:04001c00d801000007
:020000040000fa
:04002000d801000003
:020000040000fa
:04002400d8010000ff
:020000040000fa
:04002800d8010000fb
:020000040000fa
:04002c00d8010000f7
:020000040000fa
:04003000d8010000f3
:020000040000fa
:04003400c8010000ff
:020000040000fa
:04003800d8010000eb
:020000040000fa
:04003c00d8010000e7
:020000040000fa
:04004000d8010000e3
:020000040000fa
:04004400d8010000df
:020000040000fa
:04004800d8010000db
:020000040000fa
:04004c00d8010000d7
:020000040000fa
:04005000d8010000d3
:020000040000fa
:04005400d8010000cf
:020000040000fa
:04005800d8010000cb
:020000040000fa
:04005c00d8010000c7
:020000040000fa
:04006000d8010000c3
:020000040000fa
:04006400d8010000bf
:020000040000fa
:04006800d0010000c3
:020000040000fa
:04006c00d8010000b7
:020000040000fa
:04007000d8010000b3
:020000040000fa
:04007400d8010000af
:020000040000fa
:04007800d8010000ab
:020000040000fa
:04007c00d8010000a7
:020000040000fa
:04008000d8010000a3
:020000040000fa
:04008400d80100009f
:020000040000fa
:04008800d80100009b
:020000040000fa
:04008c00d801000097
:020000040000fa
:04009000d801000093
:020000040000fa
:04009400d80100008f
:020000040000fa
:04009800d80100008b
:020000040000fa
:04009c00d801000087
:020000040000fa
:0400a000d801000083
:020000040000fa
:0400a400d80100007f
:020000040000fa
:0400a800d80100007b
:020000040000fa
:0400ac00d801000077
:020000040000fa
:0400b000d801000073
:020000040000fa
:0400b400d80100006f
:020000040000fa
:0400b800d80100006b
:020000040000fa
:0400bc00d801000067
:020000040000fa
:0400c000d801000063
:020000040000fa
:0400c400d80100005f
:020000040000fa
:0400c800d80100005b
:020000040000fa
:0400cc00d801000057
:020000040000fa
:0400d000d801000053
:020000040000fa
:0400d400d80100004f
:020000040000fa
:0400d800d80100004b
:020000040000fa
:04010800d80100001a
:020000040000fa
:04010c00d801000016
:020000040000fa
:04011000d801000012
:020000040000fa
:04011400d80100000e
:020000040000fa
:04011800d80100000a
:020000040000fa
:04011c00d801000006
:020000040000fa
:04012000d801000002
:020000040000fa
:04012400d8010000fe
:020000040000fa
:04012800d8010000fa
:020000040000fa
:04012c00d8010000f6
:020000040000fa
:04013000d8010000f2
:020000040000fa
:04013400c8010000fe
:020000040000fa
:04013800d8010000ea
:020000040000fa
:04013c00d8010000e6
:020000040000fa
:04014000d8010000e2
:020000040000fa
:04014400d8010000de
:020000040000fa
:04014800d8010000da
:020000040000fa
:04014c00d8010000d6
:020000040000fa
:04015000d8010000d2
:020000040000fa
:04015400d8010000ce
:020000040000fa
:04015800d8010000ca
:020000040000fa
:04015c00d8010000c6
:020000040000fa
:04016000d8010000c2
:020000040000fa
:04016400d8010000be
:020000040000fa
:04016800d0010000c2
:020000040000fa
:04016c00d8010000b6
:020000040000fa
:04017000d8010000b2
:020000040000fa
:04017400d8010000ae
:020000040000fa
:04017800d8010000aa
:020000040000fa
:04017c00d8010000a6
:020000040000fa
:04018000d8010000a2
:020000040000fa
:04018400d80100009e
:020000040000fa
:04018800d80100009a
:020000040000fa
:04018c00d801000096
:020000040000fa
:04019000d801000092
:020000040000fa
:04019400d80100008e
:020000040000fa
:04019800d80100008a
:020000040000fa
:04019c00d801000086
:020000040000fa
:0401a000d801000082
:020000040000fa
:0401a400d80100007e
:020000040000fa
:0401a800d80100007a
:020000040000fa
:0401ac00d801000076
:020000040000fa
:0401b000d801000072
:020000040000fa
:0401b400d80100006e
:020000040000fa
:0401b800d80100006a
:020000040000fa
:0401bc00d801000066
:020000040000fa
:0401c000d801000062
:020000040000fa
:0401c400d80100005e
:020000040000fa
:0401c800d80100005a
:020000040000fa
:0401cc00d801000056
:020000040000fa
:0401d000d801000052
:020000040000fa
:0401d400d80100004e
:020000040000fa
:0401d800d80100004a
:020000040000fa
:100200006f8820000ef720000e018800000000001b
:10021000000020000000e000020032000001200089
:100220002002880014000700630007000000e000bf
:1002300003003a00003620000100200002003700d1
:100240000000200001002000810f7000010032003a
:1002500014000700000020000000e000020032004f
:1002600000000200000000008c02020000000000fc
:100270000040da000000fe004440a9000000200019
:100280000000e0000300320000002000a001880010
:100290004440a800000006008a1f78008b1f7800e9
:1002a0000000060091018800800478000000eb0047
:1002b0001a003700e284440032a0b4009905ba0065
:1002c000e284440032a0b4009906ba00e2844400fb
:1002d00032a0b4000006eb00476fde00fd07b2005d
:1002e000636ce10003003a00ebff07000000eb0045
:1002f0000a003700606ce10004003a00005deb008a
:100300008b05e900fdff3e00040037006168e10055
:10031000010032000086eb000b00070019c7ba008d
:100320001905ba000e04e00003003a000a00e000dc
:10033000e0ff3a0000000600fe07b2009e018800c0
:100340008a047800f5ff3700395dba008b05e900b3
:100350000c003200295dba008b05e900080032006c
:100360000c00e00003003a00e284440032a0b40034
:10037000f5ff370019ddba008b05e900faff3a00f6
:100380008904e800e184440032a0b40000000600c3
:100390000000fa008460a9000080fa000040060016
:1003a0000000fa008600a9000080fa000040060064
:0c03b0000040da000000fe000000050024
:020000040000fa
:1003bc00d402a80000000000d422a9000000000014
:1003cc00d442a80000000000c8e2b7000000000002
:1003dc00d442a9000000000000000600d402a900cd
:1003ec0000000000d422a90000000000d442a800a4
:1003fc0000000000c8e2b70000000000d442a900d1
:10040c000000000000000600821f78000001eb00d5
:10041c00f10f2000000000003216800002817000f5
:10042c0032168800d402a900d422a80000000000d3
:10043c00d442a800c8e2af00200204000000000073
:10044c00d442a900d422a90001f02f0001016100bf
:10045c00321688004f01780000000600801f7800db
:10046c000000eb000e03020000000000000320005f
:10047c00f4010200000000000e0302000000000066
:10048c0000032000f4010200000000000e03020033
:10049c000000000000032000f40102000000000036
:1004ac000a0202000000000080032000f401020098
:1004bc00000000000a020200000000008000200082
:1004cc00f4010200000000000a020200000000001b
:1004dc0010002000f4010200000000000a020200db
:1004ec000000000060002000f40102000000000089
:1004fc000a02020000000000f0002000f4010200db
:10050c00000000004f007800000006000000fa0018
:10051c0021000700d1ff07008268ef008368ef001d
:10052c008468ef008568ef001500070060c8b30011
:10053c00aaff0700b4ff070082c8bf000043b00049
:10054c009bff0700b0ff070083c8bf000043b0004b
:10055c0097ff0700acff070084c8bf000043b00042
:10056c0093ff0700a8ff070085c8bf000043b00039
:10057c008fff07000000000000000000ebff3700b9
:10058c000000fa008600a9008220a9008e00a800b5
:10059c000080fa00000006000000fa00c822ef00fc
:1005ac0000000000ca22ef0000000000c622ef008d
:1005bc00000000000080eb0040158800d422ef0002
:1005cc0000000000d622ef0000000000d222ef0055
:1005dc0000000000d302a800000000000080fa0018
:1005ec0000000600801f7800811f78009100200019
:1005fc000000eb000000e900feff3a008100e9007a
:10060c00fbff3a00cf0078004f0078000000060096
:10061c002e030200000000002e0302000000000068
:10062c002e03020000000000000006002e03020052
:10063c00000000002e030200000000002e03020048
:10064c00000000002e030200000000000000060065
:10065c00801f780010c020000000e900feff3a0067
:10066c004f007800000006008568ec00a000200018
:10067c008548e3000d003a008568ef008468ec00c3
:10068c008448e30009003a008468ef008368ec00ba
:10069c008348e30005003a008368ef008268ec00b1
:1006ac008248e30001003a008268ef008600a9004e
:0406bc0000400600f4
:020000040000fa
:1006c000000800008000000000000000800f000013
:1006d000800000000000000080080000060000000c
:0806e000000000000000000012
:020000040000fa
:0406e800000000000e
:020000040000fa
:0200000401f009
:04000000e0b9000063
:020000040000fa
:0200000401f009
:04000400ff7f00007a
:020000040000fa
:0200000401f009
:04000800feff0000f7
:020000040000fa
:0200000401f009
:04001400ffff0000ea
:00000001FF
